:020000040800F2
:10000000780600208901000891010008930100088A
:100010009501000897010008990100080000000000
:100020000000000000000000000000009B0100082C
:100030009D010008000000009F0100080D05000858
:10004000A3010008A3010008A3010008A301000800
:10005000A3010008A3010008A3010008A3010008F0
:10006000A3010008A3010008A3010008A3010008E0
:10007000A3010008A3010008A3010008A3010008D0
:10008000A3010008A3010008A3010008A3010008C0
:10009000A3010008A3010008A3010008A3010008B0
:1000A000A3010008A3010008A3010008A3010008A0
:1000B000A3010008B9060008A3010008A301000875
:1000C000A3010008A3010008A3010008A301000880
:1000D000A3010008A3010008A3010008A301000870
:1000E000A3010008A3010008A301000800F002F822
:1000F00000F03AF80AA090E8000C82448344AAF188
:100100000107DA4501D100F02FF8AFF2090EBAE885
:100110000F0013F0010F18BFFB1A43F0010318473B
:1001200094070000B4070000103A24BF78C878C1D3
:10013000FAD8520724BF30C830C144BF04680C60ED
:10014000704700000023002400250026103A28BF35
:1001500078C1FBD8520728BF30C148BF0B60704739
:100160001FB51FBD10B510BD00F031F81146FFF7E7
:10017000F7FF00F071FB00F04FF803B4FFF7F2FF58
:1001800003BC00F057F800000948804709480047C1
:10019000FEE7FEE7FEE7FEE7FEE7FEE7FEE7FEE737
:1001A000FEE7FEE704480549054A064B7047000094
:1001B00051060008ED0000087800002078060020B5
:1001C000780200207802002070477047704775461B
:1001D00000F02CF8AE4605006946534620F00700B3
:1001E000854618B020B5FFF7DDFFBDE820404FF091
:1001F00000064FF000074FF000084FF0000BAC4630
:10020000ACE8C009ACE8C009ACE8C009ACE8C0097A
:1002100021F007018D46704710B50446AFF300800A
:100220002046BDE81040FFF7A8BF00000048704717
:100230000800002001491820ABBEFEE7260002009E
:100240007047000080B541F21C01C4F20201086849
:1002500040F00200086040F22841C4F2000141F67B
:100260001F40088040F22C41C4F2000140F2E73008
:10027000088040F20C41C4F20001088840F00100FF
:10028000088040F21041C4F20001088820F001000B
:1002900008801D2000F034FA40F20041C4F2000151
:1002A000088840F00100088080BD000080B500F0A3
:1002B00001F880BD84B000200390029041F200015B
:1002C000C4F20201086840F480300860FFE741F2A0
:1002D0000000C4F20200006800F4003002900398AD
:1002E00001300390FFE702990020019039B9FFE740
:1002F0000398B0F5A06018BF01200190FFE70198B6
:10030000C0070028E3D1FFE741F20000C4F2020079
:1003100000688003002803D5FFE70120029002E077
:1003200000200290FFE70298012851D1FFE742F236
:100330000001C4F20201086840F01000086008687B
:1003400020F007000860086840F00200086041F2F1
:100350000401C4F20201009108680860086808609E
:10036000086840F480600860086820F47C10086029
:10037000086840F4E810086041F20001C4F202018C
:10038000086840F080700860FFE741F20000C4F2A6
:10039000020000688001002801D4FFE7F5E741F280
:1003A0000401C4F20201086820F003000860086834
:1003B00040F002000860FFE741F20400C4F20200CE
:1003C000006800F00C00082801D0FFE7F4E700E027
:1003D000FFE704B07047000041F20401C4F20201DB
:1003E000086840F4E0100860086820F480000860A5
:1003F00041F20001C4F20201086840F48030086054
:10040000FFE741F20000C4F2020000688003002808
:1004100001D4FFE7F5E741F20401C4F202010868E4
:1004200040F48030086041F20001C4F20201086823
:1004300040F080700860FFE741F20000C4F2020063
:1004400000688001002801D4FFE7F5E742F20001CF
:10045000C4F20201086840F01100086041F2040192
:10046000C4F20201086820F003000860086840F048
:1004700002000860FFE741F20400C4F202000068D5
:1004800000F00C00082801D0FFE7F4E741F2040176
:10049000C4F2020108680860086840F480600860DF
:1004A00008680860086840F4004008600421C4F24D
:1004B000010108680860704780B582B0009000981C
:1004C0000138B0F1807F03D3FFE70120019019E0EC
:1004D000009801384EF21401CEF2000108604FF08E
:1004E000FF300F2100F024F94EF21801CEF2000186
:1004F000002008604EF21002CEF2000207211160C7
:100500000190FFE7019802B080BD000040F2740046
:10051000C2F20000006840B1FFE740F27401C2F28D
:100520000001086801380860FFE7704784B00020C8
:1005300003900290019041F20400C4F202000068AE
:1005400000F00C0003900398009040B1FFE7009882
:1005500004280ED0FFE70098082814D056E040F297
:100560000001C2F2000141F20020C0F27A000860EE
:1005700056E040F20001C2F2000141F20020C0F258
:100580007A0008604CE041F20400C4F20200016805
:1005900001F470110291006800F48030019002991A
:1005A000022000EB91400290019860B9FFE70298A9
:1005B00040F60011C0F23D01484340F20001C2F292
:1005C0000001086021E041F20400C4F2020000686A
:1005D000800300280CD5FFE7029840F60011C0F216
:1005E0003D01484340F20001C2F2000108600BE007
:1005F000029841F20021C0F27A01484340F2000122
:10060000C2F200010860FFE7FFE709E040F20001E5
:10061000C2F2000141F20020C0F27A000860FFE758
:1006200041F20400C4F202000068C0B2010940F6C1
:10063000A200C0F60000405C0390039A40F2000163
:10064000C2F200010868D040086004B070470000A2
:1006500080B541F20002C4F20202106840F00100CD
:10066000106041F20401C4F2020108680023CFF6D1
:10067000FF031840086010684FF6FF73CFF6F6636B
:1006800018401060106820F480201060086820F482
:10069000FE00086041F20801C4F202014FF41F009D
:1006A0000860FFF703FE4EF60851CEF200014FF04E
:1006B0000060086080BD000040F21040C4F20000FD
:1006C0000088C007D0B1FFE740F26800C2F2000026
:1006D0004068012809D1FFE740F60C01C4F201018E
:1006E000086880F040000860FFE740F21041C4F263
:1006F0000001088820F001000880FFE77047000033
:1007000081B08DF803009DF9030000280ED4FFE7A7
:100710009DF9031001F01F02012090404A094EF29A
:100720000011CEF2000141F82200FFE701B070474E
:1007300082B08DF8070000919DF9070000280AD4C7
:10074000FFE7009800019DF907104EF20042CEF23B
:10075000000288540BE0009800019DF8071001F09A
:100760000F014EF61452CEF200028854FFE702B099
:100770007047000040F26801C2F2000100204860AA
:1007800041F21C01C4F20201086840F40030086024
:1007900041F21801C4F20201086840F00400086048
:1007A00040F60001C4F2010148F64830C4F244307A
:1007B000086040F60C01C4F20101086840F009002D
:1007C000086044F20841C4F2000140F6A6600880C7
:1007D00044F20C41C4F20001088842F20C021043BA
:1007E0000880704780B5FFF7A1FE40F20000C2F21A
:1007F000000000684DF68361C4F21B31A0FB0110BC
:10080000800CFFF759FE80BD80B5002000F034F861
:10081000014640F26800C2F200000160006838B989
:10082000FFE740F26801C2F200010120087211E006
:1008300040F26800C2F20000007AC00750B1FFE742
:1008400040F26801C2F200014868013048600020AF
:100850000872FFE780BD000080B582B000200190E3
:10086000FFF7C0FFFFF786FFFFF7B6FDFFF7EAFCD3
:10087000FFE7FFF7C9FFFCE782B0009040F60800F1
:10088000C4F2010000680099C840C00718B9FFE72A
:100890000020019002E001200190FFE7019802B0E2
:1008A000704700000000000000000102030406077A
:1008B00008090000D408000800000020040000001F
:1008C00028010008D8080008080000207006000071
:0808D0004401000800A24A04E3
:040000050800018965
:00000001FF
